:1000000000800020BD0100002D9A0000E59900004D
:10001000E5990000E5990000E5990000E5990000E8
:10002000E5990000E5990000E59900002D9A00008F
:100030002D9A0000E5990000E9900000ED91000084
:100040002D9A00002D9A00002D9A00002D9A000094
:100050002D9A00002D9A00002D9A00002D9A000084
:100060002D9A00002D9A00002D9A00002D9A000074
:100070002D9A00002D9A00002D9A00002D9A000064
:100080002D9A00002D9A00002D9A00002D9A000054
:100090002D9A00002D9A00002D9A00002D9A000044
:1000A0008D840000998400002D9A00002D9A000094
:1000B0002D9A00002D9A00002D9A00002D9A000024
:1000C0002D9A00002D9A00002D9A00002D9A000014
:1000D0002D9A00002D9A00002D9A00002D9A000004
:1000E0002D9A00002D9A00002D9A00002D9A0000F4
:1000F0002D9A0000D1B800002D9A0000FDB9000033
:100100002D9A000029BB00002D9A00002D9A0000B6
:100110002D9A00002D9A00002D9A00002D9A0000C3
:100120002D9A00002D9A00002D9A00002D9A0000B3
:100130002D9A00002D9A00002D9A00002D9A0000A3
:100140002D9A00002D9A00002D9A00002D9A000093
:100150002D9A00002D9A00002D9A00002D9A000083
:100160002D9A0000B5A800002D9A00002D9A0000DD
:100170002D9A00002D9A00002D9A00002D9A000063
:100180002D9A00002D9A00002D9A00002D9A000053
:100190002D9A00002D9A00002D9A00002D9A000043
:1001A0002D9A00002D9A00002D9A00002D9A000033
:1001B0002D9A00002D9A0000A58E0000564B4CF29F
:1001C000205210B51A804DF628121A8000BF00BFC9
:1001D00009F030FC514B4FF010621A60504A9A609F
:1001E000504ADA60504A136813F4807304D14F49BF
:1001F0000B604FF4A85313604D4B1A78110703D5C9
:100200001A7842F008021A704A4B4B492A221A7097
:100210004A4A4B4B8B4204D252F8040F43F8040B6A
:10022000F8E7484B484900228B4202D243F8042B9E
:10023000FAE74649464A002352F8230041F82300D2
:1002400001336F2BF8D1434B434A802103F8011B44
:100250009342FBD1414B3D4A1A60414B8A221A70AE
:10026000A3F5805324225A70A0221A709A7992071B
:10027000FCD59A79D406FCD43A4A937903F00C035E
:10028000082B384BF9D103221A7146225A719A79F8
:100290009006FCD5334A9179324B4906FBD5324A58
:1002A0004FF0827111600921516020221A709A79F1
:1002B00002F00C020C2AFAD12C4B2D4A1A602D4B5D
:1002C0002D4A1A6000225A60072243F8042C2B4A58
:1002D000C3F80C2D62B609F069FF144B1B68DA07EE
:1002E00005D5274809F0C6FE264B274A1A60274B3A
:1002F0001B785B0609D5234C234B22689A4204D114
:100300001F4809F0B7FE002323600DF00FFC09F031
:1003100097FB09F0C5FAFEE70E2005403080044047
:10032000823F04000100002B10D0034014D0034092
:1003300002D0074000E007400CC5FF1F6820020004
:1003400098B7FF1F10C5FF1F4849002000ACFF1FD2
:100350000000000000E400E05FE400E008ED00E0E1
:1003600000500640004006404480044004800440A1
:10037000C010050014E000E0BFD401000000202000
:10038000CB8E525E1CE00340A5C3945A00F0074098
:10039000FFFFFFFFFFFFFFFFFFFFFFFFFFFFFFFF6D
:1003A000FFFFFFFFFFFFFFFFFFFFFFFFFFFFFFFF5D
:1003B000FFFFFFFFFFFFFFFFFFFFFFFFFFFFFFFF4D
:1003C000FFFFFFFFFFFFFFFFFFFFFFFFFFFFFFFF3D
:1003D000FFFFFFFFFFFFFFFFFFFFFFFFFFFFFFFF2D
:1003E000FFFFFFFFFFFFFFFFFFFFFFFFFFFFFFFF1D
:1003F000FFFFFFFFFFFFFFFFFFFFFFFFFFFFFFFF0D
:10040000FFFFFFFFFFFFFFFFFFFFFFFFDEF9FFFF23
:1004100010B5054C237833B9044B13B10448AFF33E
:1004200000800123237010BD10C5FF1F00000000D5
:1004300064200200084B10B51BB108490848AFF30F
:1004400000800848036803B910BD074B002BFBD0A0
:10045000BDE81040184700BF0000000014C5FF1F92
:10046000642002000CC5FF1F0000000070B500F5FD
:1004700097551435064655B100F5F5540C34A54290
:1004800005D03C3C201D09F027F8A542F9D116F112
:1004900024050AD006F597540434A54205D0183C2B
:1004A000204609F019F8A542F9D1304609F014F8B0
:1004B000304670BD10B5054C04F5AC7009F00CF871
:1004C00004F18000BDE8104009F006B838F4FF1FC1
:1004D00010B5054C04F5B87008F0FEFF04F170008B
:1004E000BDE8104008F0F8BF80C5FF1F10B50A4CEA
:1004F00004F54D50303008F0EFFF04F50950183086
:1005000008F0EAFF04F58A5008F0E6FF04F128003D
:10051000BDE8104008F0E0BF30FAFF1F10B5094CED
:1005200004F1C80008F0D8FF04F1800008F0D4FFFF
:1005300004F1500008F0D0FF04F10800BDE81040BD
:1005400008F0CABFA03F002010B5044608F054FCD4
:10055000204610BD30B5074C83B0022502460B463D
:100560000095204608F0E0FE204603B0BDE830408C
:1005700008F080BEF4BAFF1F38B50AF0DBFF074C65
:1005800005460A2106480BF03BF82946204608F0AC
:10059000C1FE2046BDE8384008F06CBEF4BAFF1F2B
:1005A000D405010030B50C4C83B0054600F128019C
:1005B000204608F039FE0E2108480BF021F80221F0
:1005C000D5E934232046009108F0AEFE204603B062
:1005D000BDE8304008F04EBEF4BAFF1FE005010050
:1005E00070B50446144D15480E461A210BF008F854
:1005F00094F8511000230A22284608F04BFE0121EE
:100600000F480AF0FDFF94F8513003F11001013357
:10061000DBB2012244F82160284684F8513084F886
:10062000522019460A22002308F034FE2846BDE86D
:10063000704008F01FBE00BFF4BAFF1FF0050100B4
:10064000C00C010070B5114C82B0054600F12801C4
:10065000204608F0E9FD022616210D480AF0D0FFD9
:10066000D5E93A232046009608F05EFE01210948AC
:100670000AF0C6FFD5E938232046009608F054FE5C
:10068000204602B0BDE8704008F0F4BDF4BAFF1F88
:100690000C060100C00C0100F0B500F1280183B088
:1006A0000446224808F0C0FD02250A2120480AF02D
:1006B000A7FFD4E91C231D48009508F035FE012151
:1006C0001C480AF09DFF06211B480AF099FFD4E957
:1006D00024231648009508F027FE092117480AF040
:1006E0008FFFD4F88050A5B1D4E91E670022002303
:1006F000304639460CF06CFC58B128460CF062F9D3
:1007000002460B46304639460CF0FCFA02460B46D0
:1007100001E0D4E91C2302210091044808F004FE02
:10072000024803B0BDE8F04008F0A4BDF4BAFF1FD2
:1007300024060100C00C010030060100380601004B
:10074000F0B500F1280183B00446224808F06CFDA2
:1007500002250B2120480AF053FFD4E92A231D4823
:10076000009508F0E1FD01211C480AF049FF06212F
:100770001B480AF045FFD4E906231648009508F007
:10078000D3FD092117480AF03BFFD4F8C050A5B1AA
:10079000D4E92E6700220023304639460CF018FCBD
:1007A00058B128460CF00EF902460B463046394641
:1007B0000CF0A8FA02460B4601E0D4E92A230221F4
:1007C0000091044808F0B0FD024803B0BDE8F040D5
:1007D00008F050BDF4BAFF1F44060100C00C010030
:1007E0003006010038060100002310B4104C41729D
:1007F000026104600372C36041B1194600E00269FE
:1008000042F82310427A01339A42F8DC094B1A6805
:100810000AB90BE01A465369002BFBD15061002343
:1008200043618380C380837210BC70471860F6E711
:10083000D00501009845002010B5252104460F4839
:100840000AF0DEFE0E4808F015FD20460D4908F0BE
:10085000FDFE58B10A4808F00DFD252107480AF0B1
:10086000CFFE0748BDE8104008F004BD214604480B
:1008700008F0DAFC024808F0FDFCEEE7AC070100E6
:10088000F4BAFF1F880B010081692DE9F04110A324
:10089000D3E900230746D1E900010CF009F90CF077
:1008A000DFFB00258046FE6A2E44304608F0B6FF86
:1008B000EC0028FA04F4E4B2844205F10105214673
:1008C000304601D008F0C4FF042DECD1BDE8F08122
:1008D00000000000006AF840F8B5036AC46A1B888B
:1008E00006462046DFB21D0A08F098FF874204D072
:1008F0002046394608F0ACFFF46A0134204608F07F
:100900008DFF854205D029462046BDE8F84008F015
:100910009FBFF8BD436A2DE9F041D3F80080074638
:100920000025FE6A2E44304608F078FFEC0028FAD5
:1009300004F4E4B2844205F101052146304601D0B9
:1009400008F086FF042DECD1BDE8F081F0B585B04C
:10095000011D0446684608F013FE684608F0BCFD19
:1009600094F8285045B32A49684608F0F5FD6846D2
:1009700008F0B2FD637D032B0FD8DFE803F0272ECC
:100980003502E66AE36930461F7808F047FF874280
:1009900003D03946304608F05BFFE37D4BB1267843
:1009A0003EB1A37DE26A616B1A4413448B42E2625A
:1009B00021D8284605B0F0BD1649684608F0CCFDA0
:1009C000684608F089FD284605B0F0BD2046FFF7CF
:1009D0005BFFE37D002BE2D1EBE72046FFF77CFFD6
:1009E000E37D002BDBD1E4E72046FFF793FFE37DB7
:1009F000002BD4D1DDE70023E37584F828300649C5
:100A0000684608F0A9FD684608F066FD3546D0E75F
:100A10003C0801002008010048080100F0B585B03D
:100A200007460C466846284908F096FD684608F0D7
:100A300053FD391D684608F0A3FD684608F04CFDDB
:100A40007B6B3A6B93423CD9BE7D9B1AB3FBF6F3AA
:100A5000B3FBF4F61D49684608F07EFD684608F0D1
:100A60003BFD1B49684608F077FD684608F034FDF9
:100A70001849684608F070FD684608F02DFD3D8E67
:100A80007A6B95421BD2002404E0BB7D1D44ADB2BD
:100A9000954214D20134E4B2B4FBF6F306FB1343DF
:100AA000002BF2D00B49684608F056FD684608F066
:100AB00013FDBB7D7A6B1D44ADB29542EAD305B000
:100AC000F0BD0126C6E700BF9C080100AC0801008C
:100AD000A8070100C00C0100F8B516461F463946AC
:100AE0000FA3D3E90023054630460BF0E1FF0CF0DD
:100AF000B7FA00260746284608F090FE27FA06F4C3
:100B0000E4B2844206F108062846214605F10105B3
:100B100001D008F09DFE202EEDD1F8BDAFF300808E
:100B200000000000006AF84070B50646033008F087
:100B300075FEB41C0546013E204608F06FFE013CE0
:100B4000A64240EA0525F7D128460BF03BFF04A357
:100B5000D3E900230CF0D6F870BD00BFAFF30080DE
:100B600000000000006AF84038B50546013008F082
:100B700055FE0402284608F051FE204480B238BDDC
:100B80002DE9F043064683B00F46394908F0E4FCEE
:100B900000254FF4C87306F597584FF4FA62326196
:100BA00008F1040875613562B361F36106F124044C
:100BB0002046002108F0D0FC183404F8025CA0455F
:100BC0004FF00003F4D1B169326941F2E82041F2FB
:100BD000EC25315041F2F0247151521A41F2E420D7
:100BE00041F2E621325106F5F559335206F5975494
:100BF00073521D46183409F110094FF0010804F82A
:100C0000045C20461B4908F0A7FC3C3404F8298CFE
:100C100004F8188C4C454FF00003F0D106F5015153
:100C200041F6117242F2410041F610743355B3544B
:100C30000A460B7033541048043214310368019390
:100C4000019B42F8043B8A42F8D13946304608F00D
:100C5000EDFC06F5F55306F5F6520B331D32012176
:100C600003F8011F9342FBD1304603B0BDE8F08387
:100C7000880B0100D4070100EC45002041F2E42379
:100C80002DE9F04F4669C55A836904463344681C10
:100C9000984287B009D377213E480AF0B1FC3E481C
:100CA00008F0E8FA07B0BDE8F08F284616460F4670
:100CB00008F0B4FD8642804603D02846314608F04D
:100CC000C7FD41F2E62A41F2E42B34F80A5005EB65
:100CD00045053946ED00684608F052FC34F80B3003
:100CE000049360194FF001096946032324308DF8FD
:100CF00014308DF815908DF8169008F09FFC63194C
:100D0000049A9DF814009DF815105A639DF816205A
:100D100083F8380083F8391083F83A20684608F0E1
:100D2000DBFB34F80A2034F80B301C484A444B44AF
:100D300024F80A20042124F80B300AF061FC34F86E
:100D40000B10154808F0E6FA494615480AF058FC19
:100D5000082114480AF054FC39460F4808F064FA98
:100D6000494611480AF04CFC414600230A220A4831
:100D700008F090FA49460C480AF042FC314600233C
:100D80000A22054808F086FA034808F073FA07B00B
:100D9000BDE8F08FD8080100F4BAFF1FC4080100B5
:100DA000300D0100CC080100C00C010041F2E42329
:100DB0002DE9F04F446930F803A0836906462344C7
:100DC0000AF10400984287B080F0888000278946A5
:100DD00090463D465446281908F020FDEB000135A9
:100DE0009840042D47EA0007F4D14FF0000A20464E
:100DF00008F014FD28FA0AF5EDB285420AF1080A56
:100E00002046294604F1010401D008F021FDBAF181
:100E1000200FECD141F2E62B41F2E42A36F80B40E8
:100E200004EB44044946E400684608F0A9FB36F8A0
:100E30000A30049330190125694602220423243024
:100E40008DF814208DF815308DF8165008F0F6FB4B
:100E50003319049A9DF814009DF815105A639DF8F3
:100E6000162083F83A2083F8380083F83910684652
:100E700008F032FB36F80A1036F80B301C48043103
:100E80002B4489B226F80B3026F80A1008F042FAF3
:100E9000294618480AF0B4FB082117480AF0B0FBAD
:100EA0004946134808F0C0F9294612480AF0A8FB41
:100EB000394600230A220E4808F0ECF929460D486D
:100EC0000AF09EFB414600230A22094808F0E2F995
:100ED000074808F0CFF907B0BDE8F08F7721074841
:100EE0000AF08EFB024808F0C5F907B0BDE8F08FA4
:100EF000F4BAFF1FC00C0100CC080100D8080100A3
:100F00002DE9F04F41F2E4254769465B04468069CC
:100F100006F1040E384486458BB009D377213D484D
:100F20000AF06EFB3C4808F0A5F90BB0BDE8F08F65
:100F300030460F4690469946FFF7F6FD41F2E62A05
:100F4000CDE9020142464B463046FFF7C5FD34F875
:100F50000AB004AB0BEB4B0B39464FEACB0B1846F0
:100F600008F00EFB635B089304EB0B00012604A959
:100F70000022042324308DF824208DF825308DF8AC
:100F8000266008F05BFB04EB0B03089A9DF8240035
:100F90009DF825105A639DF8262083F83A2083F89F
:100FA000380083F8391004A808F096FA615B34F829
:100FB0000A3019480431334489B224F80A306153A5
:100FC00008F0A8F9314615480AF01AFB0821144820
:100FD0000AF016FB3946104808F026F9022431467B
:100FE0000E480AF00DFBDDE9022300940A4808F0E0
:100FF0009BF9314609480AF003FB42464B460094F0
:10100000054808F091F9044808F034F90BB0BDE840
:10101000F08F00BFD8080100F4BAFF1FC00C010018
:10102000CC0801002DE9F04F00F5F55287B01146CC
:1010300000F5015800F5F85701F10B030290002666
:1010400001931037C3464B4B019A1B6804930498D5
:101050005BF8043F12F8011F0192C3EB000919B1BC
:10106000DBF82010494578D2019B4FF000021A703E
:101070003978002978D0029ACDF80C8002F5F65123
:101080005B4602F5975500241D31CB46B846143512
:101090003746A2460E46994605E098F80030A3422E
:1010A00005F13C0516DD16F8013FBB4204F10104D1
:1010B000F3D1D9F810305B45EFD22846FFF746FC54
:1010C00098F800300AF1010AA3425FFA8AFA05F1A2
:1010D0003C05E8DC3E464746DDF80C8098F80010F9
:1010E0004B46D9469B4651B3029A039702F50051ED
:1010F00002F5F8550D315F461435CB46002489467C
:1011000005E098F80030A34205F1040515DD19F853
:10111000013FB34204F10104F3D13B695B45F0D2D6
:101120002868FFF713FC98F800300AF1010AA3427F
:101130005FFA8AFA05F10405E9DCBB46039FBAF1C0
:10114000000F0AD00B4B1968DBF830300591059978
:10115000CBF80010013BCBF830300136042E7FF481
:1011600072AF07B0BDE8F08F98F800000028F4D007
:101170008A46B9E7EC450020F0B5002383B00A2287
:101180000C462E48096908F085F801212C480AF020
:1011900037FA2146294808F047F8012128480AF083
:1011A0002FFA237D032B36D0012B3ED0022B1DD0EE
:1011B0008BB1012122480AF023FA0A2121480AF0C2
:1011C0001FFAA17D1D4808F0A5F81C4803B0BDE832
:1011D000F04008F04FB82069FFF7A6FC0225024650
:1011E0000B460095154808F09FF8E2E700252669B0
:1011F0002F46304608F012FBA8400835202D47EA5C
:10120000000706F10106F4D1394600230A220B48F3
:1012100008F040F8CDE7206908F000FB0023014604
:101220000A22064808F036F8C3E72069FFF79CFC5D
:101230000146024808F06EF8BBE700BFF4BAFF1F92
:10124000C00C01008C0B01002DE9F04141F2E623B6
:1012500086B0C35A23B300F59758074608F106082D
:1012600000F1240400252146684608F089F9216927
:10127000A37D627D267D0491384669468DF816303F
:101280008DF815208DF81460FFF776FF684608F09A
:1012900023F9B8F800300135AB4204F11804E2DC60
:1012A000024807F0E7FF06B0BDE8F081F4BAFF1F7F
:1012B000F8B541F610730546C35CE3B100F59756E7
:1012C00000F5F857143610370024082119480AF0A1
:1012D00097F92146184808F01DF8012117480AF02F
:1012E0008FF930460421FFF799FB3B780134A34284
:1012F00006F13C06E9DC05F501563378A3B105F5A6
:10130000F8551035002421460B4808F003F8022157
:101310000B480AF075F9082155F8040FFFF77EFB1A
:1013200033780134A342EEDC0348BDE8F84007F00F
:10133000A1BF00BF980B0100F4BAFF1FC00C010051
:10134000A40B010030B585B005461949194C684613
:1013500008F002F96846FFF76FFA684608F0BCF833
:10136000302115480AF04CF9204607F083FF284643
:10137000FFF76AFF252111480AF042F9204607F0DD
:1013800079FF38210E480AF03BF9204607F072FF3A
:101390002846FFF78DFF0B49684608F0DDF86846E0
:1013A000FFF74AFA684608F097F805B030BD00BF6D
:1013B000A80B0100F4BAFF1FC40B010034070100A1
:1013C000F80B0100340C0100F0B5252183B005466F
:1013D0004E484F4F0AF014F94E4807F04BFF3921A1
:1013E0004D480AF00DF94B4807F044FF05F501564A
:1013F00000242146474807F08DFF0A2147480AF09C
:10140000FFF83B680193019956F8043F4148C91A17
:101410000A22002307F03EFF052141480AF0F0F8B8
:1014200031693C4800230A2207F034FF013439486F
:1014300007F020FF042CDCD119213A4805F50157AB
:101440000AF0DEF8203705F501543E46303456F8F0
:10145000041F304800230A2207F01CFF01213248F4
:101460000AF0CEF8A642F2D12A4807F003FF18216D
:101470002E480AF0C5F805F5025654F8041F254811
:1014800007F048FF012128480AF0BAF8A642F4D133
:10149000204807F0EFFE172125480AF0B1F805F5BE
:1014A0000154103454F8041F1A4800230A2207F08C
:1014B000F1FE01211C480AF0A3F8A742F2D1154819
:1014C00007F0D8FE16211B480AF09AF805F5F654E5
:1014D00005F5F8551D340F3514F8011F0D4800238C
:1014E0000A2207F0D7FE01210F480AF089F8A54229
:1014F000F2D1084807F0BEFE252104480AF080F822
:10150000044807F0B7FE03B0F0BD00BF3407010088
:10151000EC450020F4BAFF1F580C0100940C0100A8
:10152000A00C0100A80C0100C00C0100C40C0100BB
:10153000E00C0100F80C010070B5044600780D467F
:1015400016460BF04FFADDE904230BF0B1FA0BF06D
:1015500087FD207028780BF045FADDE904230BF0B5
:10156000A7FA0BF07DFD287030780BF03BFADDE92F
:1015700004230BF09DFA0BF073FDC0B230702B7892
:1015800022781B0203EB0243184470BD2DE9F04F93
:10159000304EDFF8C890346887B0FF2505940446C4
:1015A0000127059884F84E5004F1800A00254FF079
:1015B0000008C4E90A898B462066A561E56184F8C4
:1015C0004B5084F84C5084F84D50256584F85450A5
:1015D00084F87C70294650469146984607F0BCFF37
:1015E00033680493DDF810C033680393DDF80CE032
:1015F00033680293029933680193119BA365C9EB89
:101600000806154BC4F8A4503E4484F8A850C4F80A
:10161000B870019DC4F8BC700022129FC4F8B010CD
:101620005046E765C4F89490C4F89C60C4F898806C
:10163000C4F890B0C4F8A0C0C4F8ACE0C4F8B4508A
:10164000C4E93023109907F0F1FF204607B0BDE848
:10165000F08F00BFEC4500200000F03F0000E03FAD
:1016600010B584B004460849684607F075FF68461F
:1016700007F032FFD4F8A030D4F8A4209B1AC4F8A5
:10168000A03004B010BD00BF4C0D01002DE9F043A7
:10169000002989B00546294E42DD32680192D0F812
:1016A000B830019CD0F8B02023449C1AC0F8B84050
:1016B000BCB1D5F8BC70A7B120460BF083F98046C9
:1016C000381989460BF07EF90B46024649464046DA
:1016D0000BF018FB33680393C5E90A01039BC5F8B7
:1016E000B030174904A807F037FF04A807F0F4FE4C
:1016F000144904A807F030FF04A807F0EDFE1249D2
:1017000004A807F029FF04A807F0E6FE0F4904A883
:1017100007F022FF04A807F0DFFE09B0BDE8F08360
:1017200032680292D0F8BC300299D0F8B020D0F8DC
:10173000B8400B449B1AC0F8BC30B9E7EC45002018
:101740008C0D0100F40C0100A80D0100C00C01007B
:101750002DE9F04F8046066F876FD8F86850406ECD
:10176000D8F86C4088F849209B46D8F8743088F83F
:10177000481085B01544013301365C4401370844F4
:10178000C8F87430C8F87060C8F86850C8F86C4081
:1017900088F84AB0C8F87870C8F864009246019397
:1017A00089460BF00FF9CDE9020130460BF00AF93A
:1017B00002460B46DDE902010BF0A4FAC8E900017C
:1017C00028460BF0FFF8054601980E460BF0FAF894
:1017D00002460B46284631460BF094FAC8E902014E
:1017E00020460BF0EFF8044638460D460BF0EAF8B9
:1017F0000B460246294620460BF084FA98F87C30C6
:10180000C8E9040113B905B0BDE8F08F09EB0A017E
:101810005944404605B0BDE8F04FFFF737BF00BF61
:101820002DE9F04390F84B408BB08DF80F108DF8F8
:101830000E208DF80D30002C40F0A2806D4ED0F8B7
:10184000A01033680593059BD0F8A4205B1A9A4238
:10185000054600F2BC8090F8543006AC002B40F0F6
:101860009980DDE912230DF10E01CDE900230DF180
:101870000F000DF10D02FFF75FFE9DF80D309DF892
:101880000E209DF80F1007462846FFF761FF05F16F
:101890008001204607F074FE204607F01DFE5649E1
:1018A000204607F059FE204607F016FE5349204611
:1018B00007F052FE204607F00FFE5149204607F080
:1018C0004BFE204607F008FED5F89C30002B32DD99
:1018D000C7F30729C7F3074800260FE007F03CFECF
:1018E000204607F0F9FD4749204607F035FE20461F
:1018F00007F0F2FDD5F89C30B3421CDDD5F890E03E
:10190000D5F89430BEF800203F4933449342204636
:1019100006F10106E2D2DEF8082003EB4303D754B8
:10192000DEF808201A4482F80190DEF808201344FB
:1019300083F80280D2E7D5F8900006F005F8334925
:10194000204607F009FE204607F0C6FD67B10123D7
:1019500085F8A8302E49204607F0FEFD204607F006
:10196000BBFD0BB0BDE8F0832A4985F8A87020467E
:1019700007F0F2FD204607F0AFFD0BB0BDE8F083A5
:10198000254906A807F0E8FD06A807F0A5FD0BB05D
:10199000BDE8F0832149204607F0DEFD204607F030
:1019A0009BFD9DF80F109DF80E209DF80D3095F8C9
:1019B0004C7095F84D6095F84E003944324403441C
:1019C0008DF80F108DF80E208DF80D3049E7144971
:1019D00006A807F0C1FD06A807F07EFD3368069350
:1019E0002246234621462846069CFFF7B1FE0BB04F
:1019F000BDE8F083EC450020240E0100480E0100F4
:101A0000580E0100C00C0100801801005C0E01009E
:101A10009C0E0100800E0100AC0D0100080E0100BB
:101A2000DC0D010070B586B0044600F1800102A80B
:101A300007F0A6FD02A807F04FFD0E4902A807F027
:101A40008BFD02A807F048FDD4E930230A490025A0
:101A500009680291CDE90023294684F8545084F89E
:101A6000A8502B462A462046029EFFF7D9FE256540
:101A700006B070BDB80E0100EC4500202DE9F04124
:101A80004C4D8AB00446286802900298D4F8AC60A5
:101A9000801B502824D998468B1813EB080F0E464C
:101AA000174619D02B680393039BD4F8A010D4F8E1
:101AB000A4205B1A9A420FD294F85430F3B194F8F0
:101AC000A800D8B1236DE26D01339342236504DD94
:101AD00022650AB0BDE8F08100200AB0BDE8F081BF
:101AE000354906A807F038FD06A807F0F5FC2B6875
:101AF0000693069B00200AB0BDE8F081A36D236524
:101B0000D4E9300100222D4B0AF0D2FF4346CDE943
:101B100000013A4631462046FFF782FE2A68A06956
:101B2000E369049204992A68C4F8AC1001250133D2
:101B30000130E361A06184F8545084F8A850059204
:101B40000AF040FF236E06460598C01A0F460AF0B9
:101B500039FF02460B46304639460BF0D3F80022D7
:101B6000174B0AF0A5FF0022164B0AF0A1FFC4E9AB
:101B7000080104F1800106A807F002FD06A807F09D
:101B8000ABFC114906A807F0E7FC06A807F0A4FC87
:101B90000E4906A807F0E0FC06A807F09DFC0C49DA
:101BA00006A807F0D9FC06A807F096FC28460AB05C
:101BB000BDE8F081EC450020E80E01000000F83F90
:101BC00000408F4000004E40C80E0100D40E0100BE
:101BD000E00E010070B5036D002B8AB004467ADD7B
:101BE0005549564D06A807F0B7FC06A807F074FC47
:101BF000534906A807F0B0FC04F1800606A807F0D8
:101C00006BFC314606A807F0BBFC06A807F064FC95
:101C10004C4906A807F0A0FC06A807F05DFC0121CE
:101C2000494809F0EDFC2B68019301214648019BCE
:101C300009F0E6FC94F85430002B50D0434906A834
:101C400007F08AFC06A807F047FC414906A807F000
:101C500083FC06A807F040FC2B683E49039306A8C6
:101C6000039B07F079FC06A807F036FC314606A86E
:101C700007F086FC06A807F02FFC374906A807F0F6
:101C80006BFC06A807F028FC2F4906A807F064FCA7
:101C900006A807F021FC2B680293029AD4F8B4300E
:101CA000216DD21A8A1A002A22652BDB2CD02A68D1
:101CB0000492049A214993420BD00B680593059B2B
:101CC000C4F8B43006A8254907F046FC06A807F07A
:101CD00003FC0AB070BDD0F8B430184DE7E72049D6
:101CE00006A807F039FC06A807F0F6FB94F84E307A
:101CF00094F84D2094F84C102046FFF7BFFED4F81E
:101D0000B430D4E700232365164906A807F024FC65
:101D100006A807F0E1FB314606A807F031FC06A84B
:101D200007F0DAFB236D002B02DDD4F8B430BEE7F8
:101D30002046FFF777FEF8E734070100EC45002066
:101D4000140F0100F01B0100C00C0100840701000A
:101D5000400F0100500F0100D00901008C0F01005D
:101D6000240F0100680F010070B51C4DD0F8A04091
:101D70002B68D0F8A42088B00293029B1B1B9342CF
:101D800002D2012008B070BD2B68039304460E46B2
:101D900004A81349039B07F0DFFB04A807F09CFB92
:101DA00004F1800104A807F0EBFB04A807F094FB02
:101DB000D4E930010023C4F8A4601A46CDE900013B
:101DC00019462046FFF72CFD2B680493049BC4F8AA
:101DD000A030002084F8A80008B070BDEC450020B9
:101DE000AC0F0100FFFFFFFF2DE9F0430FF2700978
:101DF000D9E9008900260027044683B0C0E900899C
:101E0000C0E90267C0E90667C0E9086728301646DE
:101E10000F46994604F1700505F066FE002384F82C
:101E200064302846104907F097FB104AC4F86890C0
:101E300013680193019BC4F8D830012384F86430FF
:101E400028460A9907F0F2FB0B9BE3662046C4F88C
:101E5000D070C4F8D46003B0BDE8F083AFF3008065
:101E600000000040F387C340880B0100EC450020D0
:101E7000D0B5D0E9046784B0044625A3D3E9002394
:101E8000304639460BF0A4F800283BD0224968467A
:101E900007F062FB684607F01FFB04F1700168461B
:101EA00007F06EFB684607F017FB1C49684607F011
:101EB00053FB684607F010FBD4E904010BF0F0F87F
:101EC00002220146684607F079FB684607F004FBEA
:101ED00004F1280005F042FF0AF096FD06460F4681
:101EE00002460B46C4E90467D4E938010AF02EFC27
:101EF0000022C4E938010A4BD4E93A010AF026FC71
:101F0000C4E93A013046394604B0D0BDAFF3008091
:101F100000000000006AF840441001004C1001006D
:101F20000000F03F2DE9F04184B000F1700104465B
:101F3000684607F025FB684607F0CEFAD4E9046747
:101F400000225C4B304639460BF038F800283FD170
:101F500005460022584B304639460BF02FF8804694
:101F6000002847D10022554B304639460BF026F861
:101F70000546002872D10022514B304639460BF0FD
:101F80001DF88046002846D14E49684607F0E4FA1D
:101F9000684607F0A1FAE36E93F84B20002A00F0A0
:101FA0008680494F83F84B8000264849684607F0F1
:101FB000D3FA684607F090FA4549684607F0CCFA2C
:101FC000684607F089FA3046394604B0BDE8F0812A
:101FD0004049684607F0C0FA684607F07DFAE36EAC
:101FE00093F84B20002A5CD1012283F84B20002675
:101FF0000027DAE73849684607F0AEFA684607F086
:102000006BFAE36E93F84B20002A4DD083F84B50C7
:102010000026324FC9E7304639460022284B0AF0E5
:1020200093FB00222E4B0AF043FD00222D4B0AF0B9
:1020300069FE0022244B0AF089FB06460F466846DB
:10204000294907F089FA684607F046FAE36E93F8E3
:102050004B20002AA9D083F84B50A6E730463946DA
:102060000022164B0AF070FB0022174B0AF020FDED
:102070000022124B0AF046FE00221C4B0AF066FBBF
:1020800006460F4668461A4907F066FA684607F0A2
:1020900023FAE36E93F84B20002A86D083F84B8016
:1020A00083E70026002780E700260C4F7DE7002607
:1020B000054F7AE70040AF4000409F4000408F400E
:1020C00000004940A01101000000E83FFC110100A0
:1020D00004120100601001009C1001000000FC3F90
:1020E0000000D03F00B08D404C1101000000F03FD7
:1020F000F8100100FFFFFFFF2DE9F04786B06449AB
:10210000644D044602A89046994607F025FA02A8B5
:1021100007F0E2F92B686049019302A8019B04F1E2
:10212000700607F019FA02A807F0D6F9314602A89E
:1021300007F026FA02A807F0CFF9584902A807F0DD
:102140000BFA02A807F0C8F9404649464EA3D3E966
:1021500000230AF03DFF10B106B0BDE8F087C4E9E6
:1021600004892046FFF784FED4E90423D4E938012A
:102170000AF0ECFA00224A4BC4E93801D4E93A01EA
:102180000AF0E4FAC4E93A01314602A807F0F8F986
:1021900002A807F0A1F9434902A807F0DDF902A857
:1021A00007F09AF9404902A807F0D6F902A807F00B
:1021B00093F92046FFF7B6FED4F8F83006460F46EE
:1021C00003F1010AC4E90667D4E93C23C4F8F8A086
:1021D0000AF0BCFA80468946C4E93C8950460AF0B8
:1021E000F1FB02460B46404649460AF08BFDD4F807
:1021F0006C80C4E9080132463B46D8E93201C8E99F
:1022000030670AF0A3FA0022254BC8E93201D8E969
:1022100034010AF09BFAC8E93401244902A807F006
:102220009BF902A807F058F9D4E90467D4E9002320
:10223000304639460AF0AEFE80B100220023304617
:1022400039460AF0C5FE48B1C4E900672B6802931D
:10225000029BC4F8D83006B0BDE8F087D4E9022369
:10226000304639460AF0B4FE0028EFD006A3D3E981
:102270000023304639460AF08DFE0028E6D0C4E936
:102280000267E3E7AFF30080000000000088C3406E
:102290001C120100EC450020301201003C1201002C
:1022A0000000F03F7C0A0100880B01004012010091
:1022B0002DE9F0470446364F0025002600F1280896
:1022C00084B08946C4E90067C4E90267C4E90467C9
:1022D000404684F8215084F8225084F8235084F832
:1022E000245084F8255084F826502A4907F034F900
:1022F000294B84F850501A68039203991A68029285
:1023000002981A680192E1630199C4F89800C4F830
:10231000C4100020002104F5865E0122C4E92E01CC
:10232000C4E93401C4E92267C4E92C6784F8382081
:1023300084F8515084F8525084F86C5084F8A050BE
:10234000C4F8C05084F8CC5084F8DC50A4F8F450A1
:1023500084F8F65041F2FC0ACEE9066741F2FD0628
:10236000D3F800C004F5875241F21013C2E904010A
:1023700004F80A50A555CDF800C0009AE250404636
:10238000494607F053F9204604B0BDE8F08700BF86
:102390000000F03F880B0100EC4500202DE9F843D8
:1023A00016461F460446C0E90067D0E904233946B3
:1023B00030460AF00DFE08B1C4E90467D4E90223EF
:1023C000304639460AF0E6FD08B1C4E90267D4E9AF
:1023D00018893046394642464B460AF0F9FD88BB1B
:1023E000D4E916893046394642464B460AF0D2FDBA
:1023F00040BB94F851305BB3304639460AF050FE8A
:1024000004F13C0680460025124956F8047F4046F8
:102410000BF060F91049114B60B940460BF03CF9E4
:102420004FF08F410E4B28B940460AF097FF0BF052
:1024300071F90346BB6194F851300135AB42E3DCDE
:10244000BDE8F88394F85130C4E90089002BD3D15A
:10245000BDE8F88300FEFF4600FEFFC60000FF7FD8
:10246000000001802DE9F047DFF8289182B0D9F80B
:102470000030009300F12808082107463D48009EDF
:1024800009F0BEF841463C4806F0CEFE15213B4817
:1024900009F0B6F8384806F0EDFE06F2DC560024E6
:1024A00000254FF0000AD9F800300193019B9E42AD
:1024B0001CD820462946002200230AF089FD044644
:1024C000002838D02C4806F0D5FE41462A4806F0B0
:1024D000ABFE13212A4809F093F8274806F0CAFEFC
:1024E000012087F8380002B0BDE8F087B86E836A33
:1024F00033B9D9F800300193019B9E42F9D8D8E74F
:1025000003F084FF0AF080FA02460B462046294673
:102510000AF01CF90AF1010A04460D461948022185
:1025200009F06EF85FFA8AFA142007F0F1FDBAF1AB
:102530000A0FBED0B7E70821134809F061F80E482A
:1025400006F098FE41460C4806F06EFE19210F4831
:1025500009F056F8084806F08DFE26210C4809F0CF
:102560004FF8054806F086FE204687F8384002B04E
:10257000BDE8F08790120100F4BAFF1F9C12010021
:10258000B8120100B4120100CC120100D8120100EF
:102590005C070100EC4500202DE9F04FDFF87C815D
:1025A00083B0D8F800300093252104465148009D9F
:1025B00009F026F8504806F05DFE04F1280B0821CA
:1025C0004E4809F01DF859464B4806F02DFE1621DD
:1025D0004B4809F015F8484806F04CFE4FF0000A49
:1025E00005F2DC55D14600260027D8F800300193CB
:1025F000019B9D421CD830463946002200230AF038
:10260000E7FC0546002855D03B4806F033FE594606
:10261000394806F009FE13213A4808F0F1FF364820
:1026200006F028FE012084F8380003B0BDE8F08FE2
:10263000D4F89C2072B6137F03F0FF010BB182F82F
:102640001C9062B60029D0D0D4F89C3072B647F600
:10265000FF724FF40041B3F91E00DA83B3F9202072
:10266000198462B682EAE2730028A3EBE273B8BF72
:1026700040429842B8BF18460AF01CFE22490AF0B0
:1026800021FF0AF0C1F902460B46304639460AF0EE
:102690005DF80AF1010A06460F461C48022108F0BF
:1026A000AFFF5FFA8AFA142007F032FDBAF10A0F81
:1026B000A1D09AE70821164808F0A2FF0E4806F0BC
:1026C000D9FD59460C4806F0AFFD1921114808F014
:1026D00097FF094806F0CEFD26210F4808F090FF2D
:1026E000054806F0C7FD284684F8385003B0BDE819
:1026F000F08F00BFAC070100F4BAFF1F9012010079
:10270000F4120100B812010000FEFF46B4120100ED
:10271000CC120100D81201000C070100EC4500208A
:1027200090F86C2082B910B590F8A04044B94C21C3
:10273000064808F065FF064806F09CFD204610BDDF
:10274000BDE81040FFF728BFFFF78CBE0C13010057
:10275000F4BAFF1F2DE9F84F00F59E65D5E9006733
:10276000824600220023304639460AF009FC50BB5D
:102770000AF1F00B7F244FF000084FF0000901E050
:10278000F5E9026732463B46FBE9020109F0DCFF4E
:1027900002460B460AF08CF902460B464046494673
:1027A00009F0D4FF013C80468946E9D1002200238C
:1027B0000AF0E6FB28B90AF5885ACAE90289BDE899
:1027C000F88FBDE8F88F21210248BDE8F84F08F0E6
:1027D00017BF00BF5C13010030B590F824400E49CC
:1027E00085B00546684606F0B7FE1CB169460B4841
:1027F00006F01AFD684606F06FFE95F8243005F5E0
:102800008854D4E9020108341BB1FDF7A3FED4E9D2
:10281000000105B030BD00BF80130100F4BAFF1FF6
:102820002DE9F04F00F58653D3E9068985B083463C
:1028300000F1F8054FF481740026002745F2AA5AEA
:1028400020460AF0BFF8F5E902230AF031F94246C2
:102850004B460AF057FA02460B463046394609F015
:1028600075FFAC34544506460F46E9D19BF823402A
:102870000B49684606F070FE1CB16946094806F02F
:10288000D3FC684606F028FE9BF823301BB1304687
:102890003946FDF75FFE3046394605B0BDE8F08F9A
:1028A00088130100F4BAFF1F2DE9F04F00F586539D
:1028B00089B0D3E90689039000F1F00A00F59D651F
:1028C00056240026002745F2AA5B20460AF07AF833
:1028D000FAE90223CDE900010AF0EAF842464B4644
:1028E0000AF010FA00221E4B0AF0E2F832463B468C
:1028F00009F02CFFF5E9022306460F46DDE9000149
:102900000AF0D6F842464B460AF0FCF90022144B76
:102910000AF0CEF832463B4609F018FFAC345C456D
:1029200006460F46D1D1039B0E4993F8234004A8D5
:1029300006F012FE1CB104A90B4806F075FC04A8B1
:1029400006F0CAFD039B93F823301BB1304639468D
:10295000FDF700FE3046394609B0BDE8F08F00BFF4
:102960000000E03F94130100F4BAFF1F90F8F63026
:10297000002B00F0BE80D0F8F03093F82227002A18
:1029800000F0B7802DE9F04F00248BB0834683F828
:1029900022475C4906A806F0DFFD06A806F09CFD6C
:1029A000594BDBF8F0501A680492049A1B6805939F
:1029B00041F2101205994BF802100BF58653D3E93A
:1029C00006010BF5875200260027CDE90001C2E978
:1029D00000670BF1F00802921635C2460BF59D69AF
:1029E000F8E9022335F8020FE9E902230AF05EFC58
:1029F0004FF062510AF0B2FC0AF006F8DDE900235C
:102A00000AF056F802460B4630463946EAE90223F8
:102A100009F09CFE01347F2C06460F46E0D19BF85E
:102A20002030029AC2E90067002B52D002460B46C2
:102A3000002036490AF066F941F2FA0241F2F80341
:102A40003BF802503BF803309D42CDE9000140DAEB
:102A500005F21D1405F5CE7905F11F080BF5875A0F
:102A60000BEBC4040BEBC9090BEBC808CDF80CB099
:102A7000DDF808B00AF1180A254906A806F06CFD31
:102A800006A806F029FDDBE9006700220023304696
:102A900039460AF09DFA013532463B4668B1D4E921
:102AA0000001C9E90001D8E900010AF02BF9DDE9CC
:102AB000002309F0FDFFC4E90001BAF80030AB4281
:102AC00004F1080409F1080908F10808D4DCDDF86C
:102AD0000CB041F2FC031BF803305BB941F2FD037B
:102AE0001BF8033013B15846FFF734FE0BB0BDE8B6
:102AF000F08F70475846FFF793FE0BF58853C3E9F4
:102B00000001EBE7AC130100EC4500200000F03FB2
:102B1000C013010090F8CC30F3B1D0F8C82072B6E1
:102B200092F8353003F0FF0113B1002382F83530FD
:102B300062B689B110B50446D0F8C80003F082FC33
:102B400009F062FF94F8CC30C4E934012BB120467F
:102B5000BDE81040FDF726BD704710BD90F8DC3091
:102B600003B9704710B50446D0F8D80003F0E2FB73
:102B7000B8B1D4F8D80003F0E9FB09F045FFC4E987
:102B80003801D4F8D80003F0EDFB09F03DFF94F8CC
:102B9000DC30C4E93A012BB12046BDE81040FDF716
:102BA00051BD10BD10BD00BFD0F89C2072B6137F80
:102BB00003F0FF010BB10023137762B690F8A03049
:102BC000002B6AD0002968D02DE9F043D0F89C3062
:102BD00085B00446D0E92A6772B647F6FF754FF410
:102BE0000041B3F91E00B3F92020DD83198462B6D9
:102BF00082EAE2730028A3EBE273B8BF4042984236
:102C0000B8BF18460AF056FB28490AF05BFC09F0E9
:102C1000FBFEC4E92A0104F12801684606F0B0FC75
:102C2000684606F059FC2249684606F095FC68465D
:102C300006F052FCD4E92C23D4E92A0109F038FF2C
:102C4000C4E92A011B49684606F086FC684606F07E
:102C500043FCD4E92A893046394642464B460AF0BD
:102C600099F9D8B900200021C4E906011149684644
:102C700006F072FC684606F02FFCD4E92A23D4E95A
:102C80002E0109F063FDD4F8C0300133C4E92E01F0
:102C9000C4F8C03005B0BDE8F083704732463B460B
:102CA0004046494609F050FDDEE700BF00FEFF4602
:102CB000F8130100C00C010090F86C30002B38D0E4
:102CC000836E9A6A002A34D02DE9D0430446184610
:102CD00003F09CFB09F098FED4E9222309F0E8FEFA
:102CE0000022002306460F460AF072F928B3D4E901
:102CF0001C8930463946C4E91C6742464B460AF0F7
:102D000067F9B8B142464B463046394609F01CFDDA
:102D1000C4E924013B46D4E91E01324609F016FD00
:102D2000D4F880300133C4E91E01C4F88030BDE816
:102D3000D083704700200021EAE71921034808F0FA
:102D40005FFC0348BDE8D04306F094BA20140100AC
:102D5000F4BAFF1F90F86C3010B5044613B190F828
:102D600021305BB994F8A0303BB194F8223023B104
:102D70002046BDE81040FDF7E3BC10BDFDF78CFC1C
:102D8000F0E700BF30B590F8383085B004464BB15D
:102D90001E4AC16B13680093009B5B1A212B1DD840
:102DA00005B030BD194DC16B2B680193019B40F6F6
:102DB000B8325B1A9342F3D900F12801144806F0A7
:102DC00033FA4721134808F01BFC114806F052FA69
:102DD0002B680293029BE36305B030BD1368039335
:102DE000039BC363FFF768FF2046FFF7DDFE204625
:102DF000FFF7BCFD2046FFF78DFE2046FFF7AEFE35
:102E00002046FFF7A7FF05B030BD00BFEC4500200E
:102E1000F4BAFF1F081501002DE9F04F0025044604
:102E200083B00570457089460830294604F1500882
:102E300017461E46DDE90CAB06F08EFB40462946E0
:102E400006F08AFB124A97F8503012680192019AF4
:102E50006566226633B956210E4808F0D1FB0E484C
:102E600006F008FA4946E7662667404606F0DEFBAC
:102E7000DDE90E12C4E90812DDE910120123204633
:102E8000C4E906ABC4E90A12637003B0BDE8F08F71
:102E9000EC45002050150100F4BAFF1F2DE9F04762
:102EA000D0E90C6786B082463946304614461D4646
:102EB0000AF08EF8002854D1DAE90E23204629467C
:102EC000CDE900230AF084F8002840F08280DAE996
:102ED00010892046294642464B460AF079F830B11F
:102EE000DAE91223204629460AF054F890BB4246FC
:102EF0004B46204629460AF04DF800284ED1DAE923
:102F000012672046294632463B460AF061F808B36C
:102F100032463B462046294609F016FC3246044616
:102F20000D463B46DDE9000109F00EFC02460B466A
:102F30002046294609F0E6FE02460B4600203349AA
:102F400009F002FC034601F100421846114606B0A2
:102F5000BDE8F08700231A461846114606B0BDE8C2
:102F6000F0872B4902A806F0F7FA02A806F0B4FA97
:102F70000AF1500102A806F003FB02A806F0ACFA21
:102F8000244902A806F0E8FA02A806F0A5FA1F4AAA
:102F900000231846114606B0BDE8F08732463B468E
:102FA0002046294609F0D0FB324604460D463B46F2
:102FB0004046494609F0C8FB02460B4620462946D2
:102FC00009F0A0FE03460A461846114606B0BDE8C1
:102FD000F087114902A806F0BFFA02A806F07CFAB1
:102FE0000AF1500102A806F0CBFA02A806F074FA22
:102FF000084902A806F0B0FA02A806F06DFA074ADE
:1030000000231846114606B0BDE8F0870000F03FE7
:10301000A8150100B4150100E81501000000F0BF7B
:103020002DE9F0474B4C056E2168466E86B0039142
:103030000399491B8E42017877D200297AD0216802
:10304000059105990166012101708246FFF726FF6F
:103050000022002304460D4609F092FF002865D1A6
:10306000DAF86C30D3E90067204632463B46294601
:1030700009F01EFD00224FF07F5309F019FD324682
:103080003B4609F063FBDAE9088942464B460646AF
:103090000F4609F09DFF08B146464F4609212E48CC
:1030A00008F0AEFA0AF150012C4806F0BDF80121F3
:1030B0002B4808F0A5FA0AF10801284806F0B4F8F0
:1030C0000B21284808F09CFADAF86C3023484FF0BE
:1030D0000208D3E90023CDF8008006F025F9042189
:1030E000214808F08DFA32463B46CDF800801B4857
:1030F00006F01AF910211D4808F082FA22462B46E4
:10310000CDF80080154806F00FF9144806F0B2F823
:103110003B463246DAF86C00FFF740F99AF8013086
:103120008BB9012006B0BDE8F08719B1002006B0C8
:10313000BDE8F087216804910499866E4D1BAE426C
:10314000FFF47DAFF2E732463B46DAF87000FFF756
:1031500025F9E6E7EC450020F4150100F4BAFF1F5D
:10316000300D0100001601000C16010014160100BC
:103170002DE9D0432C4C2D49DFF8C49084B068462B
:1031800006F0EAF9694604F1080006F04FFA1EA3BA
:10319000D3E900231EA1D1E900011FA7D7E90067E9
:1031A000C4E910231EA3D3E90023C4E91201684631
:1031B000C4E90E23C4E90C6706F08EF968461C4981
:1031C00006F0CAF9694604F1800006F02FFAC4E956
:1031D0002A67184B184F002268464FF00008002657
:1031E000C4E93023C4E92E89C4E92C6706F074F9D8
:1031F000124A62664EF66023C4F8DC20A366C4F867
:10320000E03004B0BDE8D083000000A09999D93F18
:10321000000000403333E33F000000A09999B93F1C
:10322000000000C0CCCCEC3FA03F002060160100A5
:10323000701601000000444000004E40E09304007E
:103240000000F03F2DE9F843B64DB74BB74CD5E938
:10325000006700223046394609F02AFCB44BC4E925
:10326000160100223046394609F022FC94F851300C
:10327000032BC4E9180100F24182AE492046FDF754
:10328000AFF9D5E900670022A74B3046394609F06F
:103290000FFCA74BC4E9160100223046394609F05D
:1032A00007FC94F85130032BC4E9180100F2768230
:1032B000A1499E48FDF794F9D5E9006700229A4B91
:1032C0003046394609F0F4FB994BC4E91601002257
:1032D0003046394609F0ECFB94F85130032BC4E931
:1032E000180100F2538295499048FDF779F9D5E924
:1032F000008900228C4B924E4046494609F0D8FB8B
:103300008B4BC6E9000100224046494609F0D0FB3C
:1033100041F269133746E35C032BE7E9020100F24F
:103320002D828849A6F15800FDF75AF9D5E90089A0
:1033300000227D4B4046494609F0BAFB7C4BC6E96A
:10334000000100224046494609F0B2FB41F26913F0
:10335000C7E90001E35C032B00F208827A497B484D
:10336000FDF73EF9D5E9008900226F4B40464946FA
:1033700009F09EFB6E4BC6E900010022404649461B
:1033800009F096FB41F26913C7E90001E35C032BE6
:1033900000F2E4816E496D48FDF722F9D5E9008914
:1033A00000226C4B6C4E4046494609F081FB6B4B4A
:1033B000C6E9000100224046494609F079FB42F285
:1033C00081233746E35C032BE7E9020100F2BE816B
:1033D0006349A6F15800FDF703F9D5E900890022F9
:1033E0005C4B4046494609F063FB5C4BC6E9000173
:1033F00000224046494609F05BFB42F28123C7E9BF
:103400000001E35C032B00F2998156495648FDF711
:10341000E7F8D5E9008900224E4B4046494609F0BD
:1034200047FB4E4BC6E9000100224046494609F0E1
:103430003FFB42F28123C7E90001E35C032B00F26A
:1034400075814A494848FDF7CBF8D5E90089002243
:10345000404B474E4046494609F02AFB3F4BC6E9E0
:10346000000100224046494609F022FB43F299330D
:103470003746E35C032BE7E9020100F24F813D4947
:10348000A6F15800FDF7ACF8D5E900890022314BD0
:103490004046494609F00CFB304BC6E900010022CA
:1034A0004046494609F004FB43F29933C7E900015D
:1034B000E35C032B00F22A812F493048FDF790F896
:1034C000D5E900890022234B4046494609F0F0FA2D
:1034D000224BC6E9000100224046494609F0E8FABD
:1034E00043F29933C7E90001E35C032B40F25E81AC
:1034F0004721234808F084F8224805F0BBFE224902
:10350000224B234E234FDFF894C0DFF894E0224D86
:103510000846D3E9002340F8207BD6E90067C0E9DC
:1035200000233FE090B8FF1F0000084030FAFF1F63
:1035300000002240783F002038F9FF1F78F9FF1F74
:10354000A00B0020F0F9FF1F58F9FF1F480B0020C7
:1035500098F9FF1F00001E40B81C00200080364074
:10356000F8F8FF1F10FAFF1F601C00205CF7FF1F18
:10357000D02D002018F9FF1F80C7FF1F782D0020D5
:1035800048120100F4BAFF1FB00B002098B8FF1FCB
:10359000B0B8FF1FD8C9FF1FC8B8FF1F002E0020FA
:1035A000E81C0020CEE90023C4E92223CCE9002353
:1035B00041F2391E01F58B52C2E9006742F25120F7
:1035C000002243F2693304F80E2041F23A1E2254DD
:1035D000E25442F2522043F26A3304F80E2041F2E0
:1035E000841E2254E25442F29C20012304F80E303F
:1035F00043F2B43E235441F2B81004F80E3042F2C4
:10360000D02E235442F2982004F80E30DFF8BCE1AB
:1036100044F800E043F2B030DFF8B4E144F800E0F1
:1036200041F2B410DFF8ACE144F800E042F2CC2003
:10363000DFF8A4E144F800E043F2E430DFF89CE175
:1036400044F800E043F2E830DFF894E1C4F868E0C1
:10365000DFF890E184F86C30C1E91267C4E92C67A7
:1036600084F8A030C4F89CE084F8212084F822205B
:103670002354D5E9008941F2FC0EACF1C80542F2B1
:10368000263041E92A89C5E9008943F22D3143F208
:103690002C3504F80E30CCE90A6741F2F80E41F2FD
:1036A000FD0623546355635442F2502742F2203002
:1036B00084F8F6305D23A25542F2243141F2FA0635
:1036C00024F80E303C4BE2554FF0170E43F22837EA
:1036D00043F22A352350082024F806E060524FF0C8
:1036E000140E0C26462124F807E0665384F82020A7
:1036F000C4F8F030A4F8F410BDE8F88347212F484F
:1037000007F07EFF2E4805F0B5FDBAE547212B48AE
:1037100007F076FF2A4805F0ADFDD1E6472127489E
:1037200007F06EFF264805F0A5FDADE647212348CA
:1037300007F066FF224805F09DFD86E647211F48F9
:1037400007F05EFF1E4805F095FD62E647211B4825
:1037500007F056FF1A4805F08DFD3EE64721174851
:1037600007F04EFF164805F085FD17E64721134880
:1037700007F046FF124805F07DFDF3E547210F48AD
:1037800007F03EFF0E4805F075FDCFE547210B48D9
:1037900007F036FF0A4805F06DFDA8E54721074808
:1037A00007F02EFF064805F065FD85E5054906484A
:1037B000FCF716FFA3E600BF6CCAFF1F481201000A
:1037C000F4BAFF1F7CF7FF1F782D0020A83E0020D1
:1037D000D83E00205CC5FF1F083F00202C3F002082
:1037E000A8C9FF1F38C5FF1F2DE9F04F282189B058
:1037F000BD48DFF85893DFF85883BC4FBC4EDFF864
:1038000054B3DFF854A3BB4CBB4D05F0CBF9FFF725
:1038100019FD2721B94807F0F3FEB94805F02AFD44
:103820002921B84807F0ECFE03AA0021B648CDF8DC
:103830000C90CDF81490CDF810800697079602F002
:103840009FFE03AA0121B048CDF80C90CDF810805E
:10385000CDF814900697079602F092FE03AA022173
:10386000A948CDF80C90CDF81080CDF814900697AB
:10387000079602F085FEA54B059303F1C84303F5B7
:10388000B61303F29F6303AA03219F480693A04B3C
:103890000793CDF80CB0CDF810A002F071FE03AA8A
:1038A00000219C48CDF80C90CDF81080CDF81490F4
:1038B0000697079602F064FE03AA01219548CDF809
:1038C0000C90CDF81080CDF814900697079602F072
:1038D00057FE03AA02218F48CDF81080CDF80C9036
:1038E000CDF814900697079602F04AFE874B059391
:1038F00003F1C84303F5B61303F29F6303AA032140
:1039000084480693824B0793CDF80CB0CDF810A0F5
:1039100002F036FE28218048DFF84092DFF840822E
:10392000DFF840B2DFF840A27C4E07F069FE0821C4
:103930007B4807F065FE4FF496617148022705F059
:10394000E9FC0321774807F05BFE65A3D3E9002378
:1039500000976B4805F0E8FC0321734807F050FE20
:103960006FF00B01664805F0D5FC654805F082FC58
:1039700003AA00216D48039405940495CDF818908E
:10398000CDF81C8002F0FCFD03AA012167480394D6
:1039900004950594CDF81890CDF81C8002F0F0FD48
:1039A00003AA39466148039404950594CDF818900C
:1039B000CDF81C8002F0E4FD5D4B05935D4B5B4848
:1039C000069303AA5C4B07930321CDF80CB0CDF806
:1039D00010A002F0D5FD03AA0021584803940495D5
:1039E0000594CDF81890CDF81C8002F0C9FD03AA0B
:1039F00001215248039404950594CDF81890CDF810
:103A00001C8002F0BDFD03AA39464C48049503947E
:103A10000594CDF81890CDF81C8002F0B1FD444B10
:103A20000593444B4548069303AA434B0793032150
:103A3000CDF80CB0CDF810A002F0A2FD282140482E
:103A4000DFF828813F4C07F0DBFD0821344807F000
:103A5000D7FD40F6B8312A4805F05CFC0321314817
:103A600007F0CEFD1EA3D3E900230097244805F0FC
:103A70005BFC03212C4807F0C3FD09F185696FF059
:103A80000B0105F1E4551E4805F044FC09F5133916
:103A900005F538251A4805F0EDFB09F5077905F21B
:103AA0004A3503AA0021284803960596CDF81090C0
:103AB000CDF81880079502F063FD03AA0121224882
:103AC0000396CDF810900596CDF81880079502F072
:103AD00057FD03AA39461C480396CDF8109047E0DD
:103AE000000000403333EB3F0082FF1FFB03568D85
:103AF0000EF25B34FF165002FE2DA0047416010076
:103B0000F4BAFF1F9C1601005CF8FF1FEE258B31F5
:103B1000CE3E872DE8F5FF1FC8160100BFBABF2CA7
:103B2000F41601000017010004170100FCF2FF1F4A
:103B30003DE68E0844C8459B470B9829B8D1FF1F26
:103B400008170100314D7F24A4C7FF1F857BC139B1
:103B5000F6087D8CBA23CD3A67F77294663C56A27C
:103B6000971FEA26EBAFC913623D85E84CC62CAE21
:103B70000596CDF81880079502F002FDB24B05932B
:103B8000B24B06930BF1E75BAAF1395A0BF50E2BFA
:103B9000AAF5062A03F1A34303F594030BF67E5B13
:103BA000AAF6394A03AA0321A9480793CDF80CB015
:103BB000CDF810A002F0E4FC03AA0021A54803966A
:103BC000CDF810900596CDF81880079502F0D8FC36
:103BD00003AA01219F480396CDF810900596CDF8D1
:103BE0001880079502F0CCFC03AA39469948CDF815
:103BF000109003960596CDF81880079502F0C0FC4A
:103C0000914B0593914B069303F1A34303AA03F54C
:103C1000940303218F48CDF80CB0A5F10B65CDF8C6
:103C200010A00793A5F5932502F0AAFC6FF4996301
:103C300029218948894EDFF87882DFF878B2DFF8E9
:103C400078A2DFF878921D4407F0DAFC0821844856
:103C500007F0D6FC4FF47A61824805F05BFB032144
:103C6000814807F0CDFC76A3D3E9002300977D4877
:103C700005F05AFB03217D4807F0C2FC6FF00B01F1
:103C8000784805F047FB774805F0F4FA03AA0021CD
:103C90007748069603940594CDF81080079502F0B6
:103CA0006FFC03AA0121724806960394CDF8108098
:103CB0000594079502F064FC03AA39466C48069601
:103CC0000394CDF810800594079502F059FC694BD8
:103CD0000593694B6648069303AA684B0793032133
:103CE000CDF80CB0CDF810A002F04AFC03AA0021D8
:103CF000634806960394CDF810800594079502F06A
:103D00003FFC03AA01215E4806960394CDF810807B
:103D10000594079502F034FC03AA394658480696E4
:103D2000CDF8108003940594079502F029FC514BBF
:103D30000593514B5248069303AA504B0793032116
:103D4000CDF80CB0CDF810A002F01AFC28214D4897
:103D50004D4E07F055FC0821414807F051FC4FF447
:103D60007A61404805F0D6FA03213F4807F048FC45
:103D700033A3D3E9002300973A4805F0D5FA03218D
:103D80003A4807F03DFC6FF00B01364805F0C2FAE7
:103D9000344805F06FFAD9E9000100223B4B08F0E6
:103DA00087FE02460B463A48FEF7F8FAD9E90001C9
:103DB0000022364B08F07CFE02460B463548FEF7E3
:103DC000EDFAD9E900010022334B08F071FE0246FA
:103DD0000B463248FEF7E2FAD9E9000100222E4BE9
:103DE00008F066FE0B4602462D48FEF7D7FA13216F
:103DF0002C4807F005FC1B4805F03CFA25212A4811
:103E000007F0FEFB174805F035FA337863B1204C14
:103E100000252046FEF784FC3378013504F58854EC
:103E2000AB4204F11804F4DCFFF7A2F925211F4886
:103E300007F0E6FB0B4805F01DFA09B0BDE8F08F6E
:103E4000000000403333EB3FC033541B601793C373
:103E5000A4C7FF1FC0F7FF1F341701004820863991
:103E6000F4160100F4BAFF1F001701000417010047
:103E700054C8FF1F415AA111DBEA881F99A5BF0D45
:103E800098F3FF1F60170100A2B8FF1F0000184041
:103E900030FAFF1F480B002000002E40601C00205D
:103EA000782D00208C17010084070100AC07010069
:103EB000639AFE484BCDD02AE768D63090B8FF1FF2
:103EC00090F86C30D0B504463BB3D0E91C01224BCE
:103ED000D3E9002308F0ECFD1BA3D3E9002308F08D
:103EE00033FC00221D4B06460F4609F071F80446CC
:103EF00008B1FF20D0BD002200233046394609F02A
:103F000049F8E0B912A3D3E900233046394608F056
:103F1000CFFD09F0A5F8C0B2D0BD2E21104807F0A2
:103F20006FFB104805F0A6F904F128010D4805F0D3
:103F30007BF90C4805F09EF900200B49C7E72046A5
:103F4000D0BD00BFAFF30080000000A09999B93F39
:103F50000000000000E06F4098B8FF1F0000F03F35
:103F60003C140100F4BAFF1F0000F0BFFFFFFFFF89
:103F700090F8A030D0B504463BB3D0E92A01224BDB
:103F8000D3E9002308F094FD1BA3D3E9002308F034
:103F9000DBFB00221D4B06460F4609F019F80446CC
:103FA00008B1FF20D0BD002200233046394608F07A
:103FB000F1FFE0B912A3D3E900233046394608F0F7
:103FC00077FD09F04DF8C0B2D0BD2F21104807F0A1
:103FD00017FB104805F04EF904F128010D4805F0D3
:103FE00023F90C4805F046F900200B49C7E72046A5
:103FF000D0BD00BFAFF30080000000A09999B93F89
:104000000000000000E06F40B0B8FF1F0000F03F6C
:104010006C140100F4BAFF1F0000F0BF2DE9F04F4F
:10402000084B1A7887B0AAB90748FDF78BF9282101
:10403000064807F0E5FA064805F01CF907B0BDE8A8
:10404000F08F00BFA0B8FF1F78D2FF1F641B0100D4
:10405000F4BAFF1FC04CC1480193222107F0D0FAE7
:10406000BF4805F007F904F50253BE49196042F252
:104070007C0342F26005E150DFF86CE344F805E0B0
:1040800042F274034FF0140E44F803E042F2780356
:1040900042F2540A42F2640B42F26C0744F803E025
:1040A00042F2580842F2700342F25C0642F268099A
:1040B000AD4AAE4944F80B2044F2506044F80A007F
:1040C000E2512046AA4AE25044F8092044F8081078
:1040D000A151FDF779F902A8A64905F03DFA02A918
:1040E00002222046FCF7CAFD02A805F0F5F902A855
:1040F000A14905F031FA02A901222046FCF7BEFDD4
:1041000002A805F0E9F902A89C4905F025FA02A9E0
:1041100000222046FCF7B2FD02A805F0DDF902A856
:10412000964905F019FA02A900222046FCF7A6FDDF
:1041300002A805F0D1F902A8904905F00DFA02A9EC
:1041400005222046FCF79AFD02A805F0C5F902A851
:104150008B4905F001FA02A90B222046FCF78EFDDF
:1041600002A805F0B9F902A8864905F0F5F9019B06
:1041700002A91A782046FCF781FD02A805F0ACF9E7
:1041800002A8814905F0E8F9012202A92046FCF7BE
:1041900075FD02A805F0A0F925217C4807F030FA4A
:1041A0006F4805F067F802A8794905F0D5F902A92A
:1041B00000222046FCF762FD02A805F08DF902A856
:1041C000744905F0C9F902A90022734B2046FCF797
:1041D00097FE02A805F080F902A8704905F0BCF925
:1041E00002A900226E4B2046FCF78AFE02A805F0C9
:1041F00073F902A86B4905F0AFF902A900226A4BD6
:104200002046FCF77DFE02A805F066F902A8674982
:1042100005F0A2F902A90022654B2046FCF770FECA
:1042200002A805F059F902A8624905F095F9624B18
:1042300002A900222046FCF763FE02A805F04CF913
:1042400002A85E4905F088F902A900222046FCF781
:1042500015FD02A805F040F902A8594905F07CF9BE
:10426000FF2202A92046FCF709FD02A805F034F957
:104270002521464807F0C4F9394804F0FBFF02A89D
:10428000504905F069F902A901222046FCF7F6FC25
:1042900002A805F021F902A84B4905F05DF94FF09D
:1042A0007F5302A900222046FCF72AFE02A805F04F
:1042B00013F902A8454905F04FF9454A02A92046DD
:1042C000FCF774FD02A805F007F925212F4807F037
:1042D00097F9234804F0CEFF02A83E4905F03CF9C7
:1042E00054F80B2002A92046FCF760FD02A805F057
:1042F000F3F802A8384905F02FF942F2740354F894
:104300000A00E25854F80B3002A900FB02322046A2
:10431000FCF74CFD02A805F0DFF802A82F4905F0D4
:104320001BF954F80A2002A92046FCF73FFD02A819
:1043300005F0D2F802A82A4905F00EF954F8092030
:1043400002A92046FCF732FD02A805F0C5F802A834
:10435000244905F001F949E078D2FF1FA0170100B8
:10436000F4BAFF1FA086010080EE360020BF0200D5
:10437000A0BB0D00C4170100E417010004180100E0
:1043800024180100441801006418010034070100DA
:1043900084180100A418010000004940C41801005D
:1043A00000408F40E418010000409F4004190100C4
:1043B0000000E83F241901000000FC3F44190100FF
:1043C0006419010084190100A4190100C419010035
:1043D000E0930400E4190100041A0100241A01000A
:1043E000441A0100641A010080FC0A0042F27803BA
:1043F00054F80800E25854F8093002A900FB0232D0
:104400002046FCF7D3FC02A805F066F802A839495B
:1044100005F0A2F854F8082002A92046FCF7C6FCD3
:1044200002A805F059F802A8334905F095F8E259B9
:1044300002A92046FCF7BAFC02A805F04DF802A834
:104440002E4905F089F842F27C03A059E258E3595D
:1044500002A900FB02322046FCF7A8FC02A805F0E6
:104460003BF802A8264905F077F8A25902A9204690
:10447000FCF79CFC02A805F02FF802A8214905F0E2
:104480006BF842F2700302A9E2582046FCF78EFC5A
:1044900002A805F021F802A81B4905F05DF804F513
:1044A00002536259186842F2700302A9E35800FBF4
:1044B00002322046FCF77AFC02A805F00DF802A8AB
:1044C000124905F049F8625902A92046FCF76EFC32
:1044D00002A805F001F825210D4807F091F80D48D4
:1044E00004F0C8FE642005F013FE2046FCF72AFF06
:1044F0009DE500BF841A0100A41A0100C41A01003E
:10450000E41A0100041B0100241B0100441B0100EC
:1045100034070100F4BAFF1F934B1B78002B00F007
:104520001A812DE9F04BDFF89082DFF860928EB0AF
:104530004FF0000B18E08D4B1B78002B44D08C4BB8
:104540001B78002B40F0E580BBF1000F43D0864B79
:104550001B780BF1010B08F588585B4508F118082A
:1045600009F1D80940F3D280824B1B68012B00F07F
:10457000C880002B4CD000267F4B1B68082B4FD0E7
:10458000072B00F0A080B4B200257C490AA804F0F3
:10459000E3FF0AA804F0A0FF79490AA804F0DCFFB1
:1045A0000AA804F099FF77490AA804F0D5FF0AA8E1
:1045B00004F092FF744B1B78002BBCD16B4B1B7823
:1045C00013B1BBF1000F06D0694B1B78002BBED096
:1045D000BBF1010FBBD16D4B6C48D3E93023CDE962
:1045E0000223E6B2DDE90234EDB2CDE900342A4619
:1045F00031460023FDF714F9654B6648D3E90034D2
:104600002A46CDE9003431460023FDF709F99EE73B
:104610004046FFF755FC584B1B68082B0646AFD1A8
:104620004046FEF741F95C4B5C4D1B680893CDE9B1
:104630000201089B29685A4A5A4F5B4C5B1A934205
:1046400072D8D7E90023DDE90201CDE90423554DF5
:1046500008F0A0FC28B1DDE90223C5E90023CDE97B
:104660000423D4E90034DDE90201CDE906341A4619
:1046700023464D4C08F0ACFC28B1DDE90223C4E927
:104680000023CDE90623DDE90423DDE9020108F07A
:104690005BF8DDE9042304460D46DDE9060108F078
:1046A00053F802460B462046294608F02BFB0446E9
:1046B00030460D4608F096F906460F4602460B4670
:1046C000204629460AE008F587533046D3E90445D9
:1046D00008F088F9224606460F462B4608F0E8F90E
:1046E00008F0BEFC22462B4684B23049002008F078
:1046F0002BF832463B4608F0DBF908F0B1FC85B2F6
:1047000043E74046FFF734FC064635E70EB0BDE808
:10471000F08BD9E93067EAB2E1B2CDE90067002356
:104720004846FDF77DF812E70BA3D3E90023C7E95C
:1047300000230BA3D3E9002319211D48C4E900235A
:1047400006F05EFF1B4804F095FD134B1B680993B0
:10475000099B2B6075E770470000000080842E41A4
:10476000000000E08E79453EA2B8FF1FA8B8FF1FE9
:10477000A1B8FF1F80B8FF1FC4B8FF1FAC1B01000A
:10478000BC1B0100C01B0100C0B8FF1F38F4FF1F95
:10479000D0F5FF1F10F5FF1FEC4500209CF7FF1F11
:1047A000E093040088B8FF1F78B8FF1F0000F03FB7
:1047B000901B0100F4BAFF1F30FAFF1F2DE9F04FE4
:1047C0007448754F8DB0FEF707F83B78CDE90401CA
:1047D000002B42D0DFF8E491DFF8C8816F4EDFF89C
:1047E00000A24FF0000B5C464546CB469AF8783065
:1047F000002B35D0DAE92023CDE90223DDE90223BD
:10480000DDE9040108F054F980468946F6E8022300
:10481000EBE8028908F0B4FB78B9614BD3E90023D7
:1048200046E90289CDE906236CB342464B46DDE9F1
:10483000060108F0AFFB002862D15A48FDF7CAF91B
:104840005948FDF7C7F93B7801340AF5885AA34265
:104850000AF1180A05F1D805C8DC0DB0BDE8F08FE3
:104860002F21524806F0CCFE514804F003FD51467A
:104870004F4804F0D9FC4E4804F0FCFC4D4B00229C
:10488000CDE90223BAE70F214B4806F0B9FE4B4BA6
:1048900047484FF00C08D3E90023CDF8008004F01E
:1048A00043FD434804F0E6FC0F21454806F0A8FE0E
:1048B000DDE9040102460B4607F048FFCDF8008011
:1048C00002460B463A4804F02FFD394804F0D2FC6A
:1048D0000F213C4806F094FEDDE90223CDF800806C
:1048E000334804F021FD324804F0C4FC1621364858
:1048F00006F086FE2E4804F0BDFC5BE9028994E7D1
:104900003721324806F07CFE294804F0B3FC3049D8
:1049100008A804F021FE08A804F0DEFD2D4908A82F
:1049200004F01AFE08A804F0D7FD95F84E3095F86B
:104930004D2095F84C102846FDF7A0F800283FF4CC
:104940007CAF254B1B78002B7FF477AF8CB9234BC2
:104950001B78002B3FF471AF124B124A114993F8A8
:10496000263192F8252191F824110F48FDF786F899
:1049700063E7012C7FF461AF0A4B0A4A094993F8B7
:104980004E3092F84D2091F84C100648FDF776F81D
:1049900053E700BF601C0020A2B8FF1FE0F9FF1F13
:1049A000B8B8FF1F38F4FF1F10F5FF1F6C1401008B
:1049B000F4BAFF1F0000F0BFC41B010068D2FF1F44
:1049C000D41B0100E41B0100F41B01000C1C0100BE
:1049D000441C0100580E0100983F0020F0C8FF1F42
:1049E000881C002070B5124C124D04F58073D3E979
:1049F0000023D4E90A0107F0A9FE00220E4B08F0BB
:104A000057F802460B462846FEF70AFBD4E93E2338
:104A1000D4E9080107F09AFE0022074B08F048F895
:104A200002460B4605F17800BDE87040FEF7F8BA83
:104A300038F4FF1FA03F00200000E03FFFFFFFFF12
:104A400010B50D480D4C82B0FCF7ECFA0C4B1B680E
:104A50000193019807F0B6FF05A3D3E9002308F0FE
:104A600051F9C4E9000102B010BD00BFAFF30080EE
:104A700000000000004CED4078D2FF1F30C5FF1F42
:104A8000EC4500202DE9F84F0C2005F00BFB834688
:104A90000B2005F007FB82460E2005F003FB814644
:104AA0000F2005F0FFFA8046102005F0FBFA0746BC
:104AB000112005F0F7FA1B2106463C4806F0A0FD40
:104AC0003B4804F0D7FB1BF1000B18BF4FF0010B64
:104AD0001AF1000A18BF4FF0010A19F1000918BFB6
:104AE0004FF0010918F1000818BF4FF00108003716
:104AF00018BF0127003618BF01260A2501240C2003
:104B000005F0D0FA584507D021212A4806F078FD53
:104B1000274804F0AFFB00240B2005F0C3FA8245C0
:104B200007D02121244806F06BFD214804F0A2FBA8
:104B300000240E2005F0B6FA814507D021211F4838
:104B400006F05EFD1A4804F095FB00240F2005F0E6
:104B5000A9FA404507D02121194806F051FD144813
:104B600004F088FB0024102005F09CFAB84207D01E
:104B70002121144806F044FD0D4804F07BFB00247D
:104B8000112005F08FFAB04207D021210E4806F01F
:104B900037FD074804F06EFB00240A2005F0B8FA40
:104BA000013DACD12046BDE8F88F00BF681C010074
:104BB000F4BAFF1F841C0100A81C0100CC1C0100DA
:104BC000F01C0100141D0100381D010010B582B059
:104BD000FFF758FF002800F09C8021215248534CD9
:104BE00006F00EFD524804F045FB00210C2005F0B4
:104BF00067FA00210B2005F063FA00210E2005F072
:104C00005FFA00210F2005F05BFA0021102005F06B
:104C100057FA0021112005F053FA0C2005F042FA52
:104C200000230A220146424804F034FB0121414896
:104C300006F0E6FC0B2005F035FA00230A220146B7
:104C40003B4804F027FB01213A4806F0D9FC0E202E
:104C500005F028FA00230A220146354804F01AFB21
:104C60000121344806F0CCFC0F2005F01BFA00238C
:104C70000A2201462E4804F00DFB01212D4806F0C2
:104C8000BFFC102005F00EFA00230A220146284836
:104C900004F000FB0121274806F0B2FC112005F0CA
:104CA00001FA002301460A22214804F0F3FA2048C1
:104CB00004F0E0FA0C2005F0F5F9282120701E48D8
:104CC00006F09EFC21781A481C4C00230A2204F0AE
:104CD000E1FA174804F0CEFA112005F0E3F938B1F3
:104CE000D4E900010022164B07F0E2FEC4E90001FE
:104CF0002D21144806F084FC0221D4E900230C483D
:104D0000009104F011FB0A4802B0BDE8104004F025
:104D1000B1BA4B210C4806F073FC054802B0BDE85F
:104D2000104004F0A7BA00BF5C1D0100F0C8FF1FCF
:104D3000F4BAFF1FC00C0100801D010090B8FF1FD6
:104D40000000F83FAC1D0100DC1D01002DE9F04F13
:104D5000724A734B1268734DDFF84C82724F8FB0FA
:104D60000AAC0992099A1A604FF03C0A04F00EFD51
:104D70004FF028096D49204604F0EEFB0423002281
:104D80006B49CDF808A02846CDF804900094FCF7B4
:104D9000FDFB204604F0A0FB05F1D806654920463E
:104DA00004F0DAFB09238DE810060522604930463D
:104DB000FCF7ECFB204604F08FFB5F4A5F490020C4
:104DC00008F092FED8F80090D7F800A05749204686
:104DD00004F0C2FB5246002349460195009458480E
:104DE000584DFDF701F8204604F076FB3F68D8F8EF
:104DF00000805549204604F0AFFB01233A46414666
:104E0000019600945148FCF7EFFF204604F064FB44
:104E1000494A4F49002008F067FE4E49204604F0F9
:104E20009BFB21464C48FBF7ABFE204604F054FBAD
:104E3000414A4A49484808F057FE4949204604F08B
:104E40008BFB21464748FDF733FA204604F044FB2C
:104E50004549204604F080FB21464448FDF728FAE6
:104E6000204604F039FB4249204604F075FB2146F8
:104E70004048FDF71DFA204604F02EFB3E4920462F
:104E800004F06AFB21463D48FDF712FA204604F083
:104E900023FB294A3A49002008F026FE39492046DA
:104EA00004F05AFB384B3948002200264FF07F5758
:104EB0002146CDE90223CDE90023CDE904672B4B40
:104EC000284AFDF7A9FF204604F006FB304920469A
:104ED00004F042FB2F4B304800222146CDE902234B
:104EE000CDE90023CDE90467244B224AFDF794FF66
:104EF000204604F0F1FA104A2849002008F0F4FD99
:104F0000274B1A68274B2B6000236B722B612B7287
:104F1000EB60002A4BD100F034BD00BFEC4500200F
:104F2000A0C7FF1F38F4FF1FD0B8FF1F281E0100C5
:104F3000D4B8FF1F301E010074B8FF1FB504000075
:104F400080C5FF1FD4F6FF1F381E010080C6FF1F5B
:104F5000D1040000401E010078D2FF1F6D04000044
:104F6000501E010030FAFF1F5C1E0100480B00209C
:104F7000681E0100601C0020741E0100782D0020B6
:104F8000ED040000801E010000001840A03F00203A
:104F9000881E010000002E40184000201D05000062
:104FA00098450020D0050100A4B8FF1F1A46536998
:104FB000002BFBD1556100279A4B9B486F61AF8056
:104FC000EF80AF722B6001F0C1FB984BDFF8BCB2F1
:104FD000974C03F11C0218460121FBF705FC954B89
:104FE00003F11C021846914B4FF4803601219E615B
:104FF0001C60FBF7F9FB8F4B0BF11C02012158469B
:105000009E611C60FBF7F0FB8B4BCBF8186003F143
:105010001C0218460121CBF80040FBF7E5FB874B4B
:1050200003F198021846844B01219E611C60FBF736
:10503000DBFB824B824E814A43F8146B943243F877
:10504000047F9342FBD17F4B012103F19802184664
:10505000FBF7CAFB7B4B03F1940143F8146B00226E
:1050600043F8042F8B42FBD1774B012103F19802C7
:105070001846FBF7B9FB744B03F1940143F8146B2A
:10508000002243F8042F8B42FBD1704B012103F126
:1050900098021846FBF7A8FB6C4B03F1940143F808
:1050A000146B002243F8042F9942FBD1684B012175
:1050B00003F11C021846FBF797FB664B03F11C0239
:1050C0001846634B4FF4803701211C609F61FBF74A
:1050D0008BFB614B03F11C0218465E4B01211C60E7
:1050E0009F61FBF781FB5D4B03F11C0218465A4B95
:1050F00001211C609F61FBF777FB594B03F198027C
:105100001846564B01219F611C60FBF76DFB544B09
:1051100003F1940143F8146B002243F8042F8B42EF
:10512000FBD1504B012103F198021846FBF75CFBC1
:105130004C4B03F1940143F8146B002243F8042F05
:105140009942FBD1484B012103F198021846FBF725
:105150004BFB454B03F1940143F8146B002243F8D9
:10516000042F9942FBD1414B012103F198021846CB
:10517000FBF73AFB3D4B03F1940143F8146B00221B
:1051800043F8042F8B424FF00007F9D1384BDFF87A
:10519000F4A003F11C0218460121FBF725FB354B57
:1051A00003F11C021846324B4FF4803601211C607B
:1051B0009E61FBF719FB304B03F11C0218462D4B87
:1051C00001211C609E61FBF70FFB2C4B03F11C02BD
:1051D0001846294B01211C609E61FBF705FB2748FF
:1051E0008AF80870022104600AF1180286612448D6
:1051F0008AF809103B46CAF80000CAF80C70CAF8D1
:1052000010203946544600E0226942F823109AF8EB
:1052100009201C4801339A42F6DC1B4B1A68C2BBBA
:10522000B3E300BF5C220100D4F6FF1FF8F8FF1FB4
:1052300068220100783F002018F9FF1FE8F5FF1FE2
:1052400050220100C0F7FF1F5CF8FF1FA4C7FF1F1B
:1052500080C7FF1F10FAFF1F58F9FF1F38F9FF1F03
:1052600054C8FF1FFCF2FF1F98F3FF1FB8D1FF1FA8
:105270007CF7FF1F5CF7FF1F98F9FF1F78F9FF1FEE
:10528000D0050100A0F7FF1F98450020F0F9FF1F8F
:105290001A465369002BFBD1C2F814A00027464BD5
:1052A0004648CAF81470AAF80470AAF806708AF87A
:1052B0000A70CAF8003005F063F9414B414C424E88
:1052C00003F1180218460121FBF78EFA3F4B03F158
:1052D000180218463A4B4FF000084FF00009012120
:1052E000C3E908891C609F62FBF77EFA384B03F123
:1052F00018021846354B0121C3E908891C609F62DA
:10530000FBF772FA334B03F118021846304B0121B8
:10531000C3E908891C609F62FBF766FA2E4B03F114
:10532000180218462B4B0121C3E908891C609F62B3
:10533000FBF75AFA294BDFF8B09003F11802184630
:10534000254B47F6FF744FF400480121DC831E60B3
:10535000A3F82080FBF748FA214B03F11802184606
:105360001E4B0121DC831E60A3F82080FBF73CFA72
:105370001B4989F80870CC8301201A4C0E6009F291
:105380002472A1F82080C9F800403B463946C9F88C
:105390000C7089F80900C9F810204C4600E0226919
:1053A00042F8231099F809200F4801339A42F6DC9D
:1053B0000E4B1A68EAB9EAE2E0240100A0F7FF1FE9
:1053C000A8C9FF1F4420010038200100D8C9FF1FD1
:1053D000A83E0020D83E002038C5FF1F5CC5FF1F37
:1053E000083F0020D00501006CCAFF1F984500202F
:1053F0001A465369002BFBD1C2F814900024BB4B12
:10540000BB49C9F800302246C9F81811C9F8144040
:10541000A9F80440A9F8064089F80A4001234FF48E
:105420008071B44889F8214789F8224707F008F8C5
:10543000B14BC9F81C4103F1180218460121082399
:1054400089F82037FBF7D0F9AB4BDFF83C83AA494A
:105450001E604FF40043A94F0B8447F6FF72A84B20
:10546000C8F804304046CA8388F80840C8F800509D
:1054700088F80940C8F80C4088F8104003F088FC10
:10548000A04AA149A14E404608F02EFBA04B7B60EC
:1054900038463C723D607C72FC603C7403F078FCE2
:1054A000984A9949DFF8E482384608F01DFB994B89
:1054B000994F736030464FF0010333727472356058
:1054C000F460347403F064FC8E4A8F49304608F06F
:1054D0000BFB4FF001033846904E3B7287E82008E3
:1054E0007C72FC603C7403F053FC864A86498C4D08
:1054F000384608F0F9FA824B33603046894B7360C6
:1055000034727472F460347403F042FC7D4A7E4954
:10551000854F304608F0E8FA7E4B844E2B602846D3
:10552000834B6B602C726C72EC602C7403F030FC5B
:10553000744A7549284608F0D7FA7E4B7E4D736051
:1055400030463472C6F800B07472F460347403F0FC
:105550001FFC6C4A6C49DFF838B2304608F0C4FAD8
:105560006B4B2B602846754B2C726B606C72EC6039
:105570002C7403F00DFC634A6349714B0793284672
:1055800008F0B2FA6D4BC8F8003040466D4BC8F8D1
:10559000043088F8084088F80940C8F80C4088F8BA
:1055A000104003F0F5FB574A5749674E674D404698
:1055B00008F09AFA5F4B3B603846654B7B603C7263
:1055C0007C72FC603C7403F0E3FB4E4A4E49DFF80A
:1055D000C481384608F088FA524B336030465D4B40
:1055E000736034727472F460347403F0D1FB454A12
:1055F0004549594F304608F077FA4D4B2B60284605
:10560000564B6B602C726C72EC602C7403F0C0FB18
:105610003D493C4A524E284608F066FA079B494AE3
:105620001A6018464F4A1C725A605C72DC601C7427
:1056300003F0AEFB079B334A33494B4D18464B4BA7
:10564000079308F051FA434BCBF800305846484BCB
:10565000CBF804308BF808408BF80940CBF80C40AD
:105660008BF8104003F094FB2749264A584608F06F
:105670003BFA4048364A02603F4A04724260447234
:10568000C460047403F084FB1F491E4A3948DFF8E4
:1056900008B108F029FA3948304A0260384A0472E1
:1056A00042604472C460047403F072FB154A1649E8
:1056B000324808F019FA324BC8F800304046314BF6
:1056C000C8F8043088F8084088F80940C8F80C4049
:1056D00088F8104003F05CFB0A4A0B49404608F08A
:1056E00003FA204B3B60384658E000BF2C200100F5
:1056F0004820010094D1FF1F2C3F0020F4C8FF1F59
:10570000F8F8FF1F74B8FF1F4905000008C9FF1F04
:1057100018F9FF1F783F00201CC9FF1F30C9FF1F69
:1057200044C9FF1F5CF8FF1F6CC9FF1F58C9FF1F4A
:10573000A4C7FF1FC0F7FF1F54D2FF1FE8F5FF1FCC
:10574000CCF9FF1F80C7FF1FB8F9FF1F94C9FF1FC7
:1057500058F9FF1F10FAFF1F44CAFF1F38F9FF1F37
:1057600058CAFF1FFCF2FF1F84F6FF1FACF6FF1F95
:10577000B8D1FF1F08CAFF1F98F3FF1F1CCAFF1FE5
:1057800054C8FF1F78F9FF1FA4D1FF1F80C9FF1F56
:1057900040C8FF1F30CAFF1F904000207D4B7B6038
:1057A0003C727C72FC603C7403F0F2FA7A4A7B49EA
:1057B000DFF85082384608F097F9794B336030466D
:1057C000784B736034727472F460347403F0E0FAEE
:1057D000714A7249304608F087F9734B2B602846AE
:1057E000724B6B602C726C72EC602C7403F0D0FA0C
:1057F0006A49694A284608F077F96D48654A0260A7
:105800006C4A047242604472C460047403F0C0FACB
:105810006249614A664808F067F9079B664A5A6020
:1058200018465C4A1A601C725C72DC601C7403F0DF
:10583000AFFA079B5949584A184608F055F95F488E
:105840005A4A02605E4A047242604472C460047440
:1058500003F09EFA504A5149584808F045F9534B15
:10586000CBF800305846574BCBF804308BF8084043
:105870008BF80940CBF80C408BF8104003F088FA05
:105880004649454A584608F02FF94F48474A04729E
:1058900080E804044472C460047403F079FA3F4958
:1058A0003D4A494808F020F948483E4A0260484AC3
:1058B000047242604472C460047403F069FA3749A8
:1058C000354A424808F010F94248364A0260424AD6
:1058D000047242604472C460047403F059FA2F49A0
:1058E0002D4A3C4808F000F93C483D4A02603D4AD8
:1058F000047242604472C460047403F049FA274998
:10590000254A364808F0F0F83748354A0260374AE9
:10591000047242604472C460047403F039FA1F498F
:105920001D4A314808F0E0F831484FF00102427258
:105930002B4A047280E80404C460047403F028FA5B
:10594000154A16492A4808F0CFF82A4B88F808402B
:10595000404688E8080288F80940C8F80C4088F8F2
:10596000104003F015FA40460B4A0C4908F0BCF809
:10597000214B1B680A930A9A204B1A600FB0BDE8AE
:10598000F08F1F4B1D60FFF716BB186086E4186090
:1059900034E500BF7CF7FF1F74B8FF1F4905000006
:1059A00098F3FF1F98F9FF1FB8D1FF1F5CF7FF1F87
:1059B00098F6FF1FD83E00202C3F0020C0F6FF1FA6
:1059C000A83E0020083F0020ECF6FF1F00F7FF1F55
:1059D000D8C9FF1F14F7FF1F5CC5FF1F28F7FF1F63
:1059E00078F9FF1FA8C9FF1F903E002038C5FF1F90
:1059F000503F0020F8F8FF1FEC4500209CF7FF1FE8
:105A000098450020643F002038B50A4C012505FA6E
:105A100000F1E023C9B2204684F85E5084F85D505E
:105A200084F83B3002F0F6F929462046BDE83840BC
:105A300002F094BB24B9FF1F2DE9F043044685B062
:105A4000884635482121174605F0DAFD334802F033
:105A5000F5F9A06E002802DBC0B2072858D904F17E
:105A6000280528462D4902F041F80646002834D181
:105A700010212B482B4D05F0C3FD04F170012A487D
:105A800003F0D2FB0A21294805F0BAFD264803F0AD
:105A9000F1FBE06ED0E930893346CDE9008964221C
:105AA000FF21FBF7BDFE2B680393039C2B68029339
:105AB00004F59C54029B08349C420BD901211C48DC
:105AC00005F09EFD642004F023FB2B680293029BEB
:105AD0009C42F3D805B0BDE8F0830521154805F0D8
